:100000000C942A000C94ED020C9447000C944700C9
:100010000C9447000C9447000C9447000C94470044
:100020000C9447000C9447000C9447000C949B03DD
:100030000C9447000C9447000C9447000C94470024
:100040000C9447000C9447000C9447000C94470014
:100050000C94470011241FBECFE5D8E0DEBFCDBF12
:1000600010E0A0E6B0E0E0E3FFE002C005900D92F2
:10007000A237B107D9F720E0A2E7B0E001C01D9296
:10008000A438B207E1F70E941F040C9496070C9461
:100090000000813041F028F0823039F0833039F0AF
:1000A00008956ABB089567BB089564BB089561BB5A
:1000B0000895813041F028F0823039F0833039F0F2
:1000C00008956BBB089568BB089565BB089562BB36
:1000D0000895813011F130F08230D1F1833009F48C
:1000E00052C008954F3F59F42AB381E090E002C016
:1000F000880F991F6A95E2F7822B8ABB08954111F8
:100100005CC02AB381E090E002C0880F991F6A9515
:10011000E2F7809582238ABB08954F3F59F427B3B5
:1001200081E090E002C0880F991F6A95E2F7822B68
:1001300087BB0895411141C027B381E090E002C020
:10014000880F991F6A95E2F78095822387BB0895EF
:100150004F3F59F424B381E090E002C0880F991F0B
:100160006A95E2F7822B84BB0895411126C024B31F
:1001700081E090E002C0880F991F6A95E2F78095B0
:10018000822384BB08954F3F59F421B381E090E06E
:1001900002C0880F991F6A95E2F7822B81BB0895F0
:1001A00041110BC021B381E090E002C0880F991F7C
:1001B0006A95E2F78095822381BB0895813011F121
:1001C00030F0823069F1833009F445C008954F3F23
:1001D00059F42BB381E090E002C0880F991F6A9513
:1001E000E2F7822B8BBB089541114FC02BB381E006
:1001F00090E002C0880F991F6A95E2F780958223EC
:100200008BBB08954F3F09F040C028B381E090E0D8
:1002100002C0880F991F6A95E2F7822B88BB089568
:100220004F3F59F425B381E090E002C0880F991F39
:100230006A95E2F7822B85BB0895411126C025B34C
:1002400081E090E002C0880F991F6A95E2F78095DF
:10025000822385BB08954F3F59F422B381E090E09B
:1002600002C0880F991F6A95E2F7822B82BB08951E
:1002700041110BC022B381E090E002C0880F991FAA
:100280006A95E2F78095822382BB08958130C9F098
:1002900028F0823049F18330D1F14BC029B381E09D
:1002A00090E0062E02C0880F991F0A94E2F730E012
:1002B0008223932302C0959587956A95E2F7982F3C
:1002C00038C026B381E090E0062E02C0880F991F47
:1002D0000A94E2F730E08223932302C09595879534
:1002E0006A95E2F7982F25C023B381E090E0062EAF
:1002F00002C0880F991F0A94E2F730E0822393230B
:1003000002C0959587956A95E2F7982F12C020B3A1
:1003100081E090E0062E02C0880F991F0A94E2F750
:1003200030E08223932302C0959587956A95E2F782
:10033000982F892F089578949BB790649BBF811163
:1003400007C085B78E7F85BF85B78D7F85BF089530
:10035000813039F485B7816085BF85B78D7F85BFD2
:100360000895823039F485B78E7F85BF85B7826066
:1003700085BF0895833031F485B7816085BF85B727
:10038000826085BF0895CF93C82F40E060E080E091
:100390000E94DE0040E061E080E00E94DE004FEF5E
:1003A00062E080E00E94DE006C2F82E00E94590033
:1003B00040E062E080E00E94DE0081EE94E0019780
:1003C000F1F700C000004FEF62E080E00E94DE0025
:1003D00083EC99E00197F1F700C00000CF910895F8
:1003E0008BE49DE10197F1F700C0000082E00E94DC
:1003F000C30185EA9EE00197F1F700C0000088E3A1
:100400000E94C30189EF90E00197F1F700C000005E
:100410008CE00E94C30189EF90E00197F1F700C0E2
:10042000000081E00E94C30185EA9EE00197F1F798
:1004300000C0000086E00E94C30183EF91E00197B5
:10044000F1F700C000000895CF93C82F4FEF60E090
:1004500080E00E94DE0040E061E080E00E94DE007B
:100460004FEF62E080E00E94DE006C2F82E00E948D
:10047000590040E062E080E00E94DE0081EE94E0FE
:100480000197F1F700C000004FEF62E080E00E94AA
:10049000DE0083EC99E00197F1F700C00000CF91F6
:1004A00008950F931F93CF93DF93662371F0EC01B0
:1004B0006150062F10E00F5F1F4F080F191F899121
:1004C0000E942402C017D107D1F7DF91CF911F916D
:1004D0000F910895811105C0862F80680E94C30185
:1004E0000895813021F4862F806C0E94C301089505
:1004F0004F925F926F927F928F929F92AF92BF9234
:10050000CF92DF92EF92FF929B01AC011616170675
:100510001806190624F080E30E94240251C0C12C61
:10052000D12C7601C3940F2EFAE08F2E912CA12CA2
:10053000B12CF02DCA01B901A50194010E94550703
:10054000CC0CDD1CEE1CFF1CD701C601880F991FC7
:10055000AA1FBB1F880F991FAA1FBB1FC80ED91E39
:10056000EA1EFB1EC60ED11CE11CF11C2115310533
:1005700041055105F9F681E0C816D104E104F10402
:10058000F9F00F2EFAE04F2E512C612C712CF02D2A
:10059000C701B601A30192010E945507822E932E36
:1005A000A42EB52E80E3860F0E942402C82CD92CDD
:1005B000EA2CFB2C81E0C816D104E104F10441F7D8
:1005C000FF90EF90DF90CF90BF90AF909F908F9073
:1005D0007F906F905F904F9008951F920F920FB68B
:1005E0000F9211248F939F9380917E0090917F00B2
:1005F000019690937F0080937E009F918F910F9042
:100600000FBE0F901F901895CF92DF92EF92FF923E
:10061000CF93DF93EC01C61BD70B60917A007091EA
:100620007B006C0F7D1FCB01880F991F880F991FCE
:10063000680F791F072E000C880B990B0E945C062F
:100640002AE037ED43EA5BE30E94E8066B017C0198
:10065000BE01660F771FCE01880F991F880F991F63
:10066000880F991F680F791F072E000C880B990BB4
:100670000E945C069B01AC01C701B6010E944605C1
:1006800020E030E0A9010E9446050E942406C090A7
:100690007400D0907500E0907600F0907700DC0157
:1006A000CB018C0D9D1DAE1DBF1D809374009093DA
:1006B0007500A0937600B0937700D0937B00C09331
:1006C0007A00883823E19207A105B1056CF088E82B
:1006D00093E1A0E0B0E08093740090937500A09344
:1006E0007600B09377000DC0181619061A061B067F
:1006F00044F01092740010927500109276001092DF
:1007000077006091740070917500809176009091EF
:1007100077000E945C062AEA32E841E55EE30E9427
:10072000E8060E942B06CB01DF91CF91FF90EF905E
:10073000DF90CF9008951F920F920FB60F92112461
:100740002F933F934F935F936F937F938F939F93D9
:10075000AF93BF93EF93FF9360917E0070917F0002
:1007600080E090E00E945A062AE037ED43E25CE325
:100770000E94B20520E030E044EB53E40E94B20551
:1007800020E030E040E752E40E94E8060E942B0699
:100790006093800070938100809382009093830027
:1007A00080917200909173000E94040390937900ED
:1007B0008093780040E0BC0184E00E948A0410929B
:1007C0007F0010927E0084E682BFFF91EF91BF917F
:1007D000AF919F918F917F916F915F914F913F91D9
:1007E0002F910F900FBE0F901F9018956FEF82E022
:1007F0000E9449006FEF80E00E94490060E081E0C4
:100800000E9449006FEF81E00E94590040E062E0E1
:1008100083E00E9469004FEF65E083E00E94690079
:1008200083E00E949B0164E685E00E94FB040E9435
:10083000F00160E180E690E00E94510208950E947C
:10084000F60360E081E00E94460181110FC060E084
:1008500081E00E9446018823D1F380917C00909131
:100860007D0090937300809372002DC061E081E061
:100870000E944601811110C061E081E00E944601A2
:100880008823D1F380917C0090917D000A9690930B
:100890007D0080937C0017C062E081E00E944601E9
:1008A000811111C062E081E00E9446018823D1F3EA
:1008B00080917C0090917D00009729F00A97909399
:1008C0007D0080937C0060E081E00E946A0260917C
:1008D0007C0070917D0080E090E00E94780264E0EE
:1008E00081E00E946A02609172007091730080E062
:1008F00090E00E9478026AE081E00E946A026091C2
:1009000080007091810080918200909183000E940C
:10091000780297CF442319F04130B1F029C09FB538
:100920009E7F9FBD9FB592609FBD9EB598609EBD06
:100930009EB590619EBD9FB59F7B9FBD9FB5906802
:100940009FBD7BBD6ABD14C09FB59E7F9FBD9FB5F7
:1009500092609FBD9EB598609EBD9EB590619EBD04
:1009600079BD68BD9FB59F7E9FBD9FB590629FBDBD
:100970008330F9F028F4813041F0823081F036C0C4
:10098000843009F1853049F131C08EB581608EBD6A
:100990008EB58D7F8EBD8EB58B7F8EBD27C08EB5FB
:1009A0008E7F8EBD8EB582608EBD8EB58B7F8EBDE7
:1009B0001DC08EB581608EBD8EB582608EBD8EB538
:1009C0008B7F8EBD13C08EB58E7F8EBD8EB58D7F15
:1009D0008EBD8EB584608EBD09C08EB581608EBD22
:1009E0008EB58D7F8EBD8EB584608EBD8FEF93E00A
:1009F00097BD86BD089593B79F7B93BF93B7977FAD
:100A000093BF62BF8330F9F028F4813041F0823027
:100A100081F036C0843009F1853049F131C083B7A7
:100A2000816083BF83B78D7F83BF83B78B7F83BF95
:100A300027C083B78E7F83BF83B7826083BF83B7AE
:100A40008B7F83BF1DC083B7816083BF83B7826004
:100A500083BF83B78B7F83BF13C083B78E7F83BF72
:100A600083B78D7F83BF83B7846083BF09C083B79B
:100A7000816083BF83B78D7F83BF83B7846083BF6B
:100A800089B7816089BF789408955058BB27AA27F9
:100A90000E945D050C94AE060E94A00638F00E94EC
:100AA000A70620F039F49F3F19F426F40C949D0614
:100AB0000EF4E095E7FB0C949706E92F0E94BF0621
:100AC00058F3BA17620773078407950720F079F483
:100AD000A6F50C94E1060EF4E0950B2EBA2FA02D8E
:100AE0000B01B90190010C01CA01A0011124FF27DB
:100AF000591B99F0593F50F4503E68F11A16F040D6
:100B0000A22F232F342F4427585FF3CF46953795D4
:100B10002795A795F0405395C9F77EF41F16BA0B99
:100B2000620B730B840BBAF09150A1F0FF0FBB1F47
:100B3000661F771F881FC2F70EC0BA0F621F731F90
:100B4000841F48F4879577956795B795F7959E3FED
:100B500008F0B0CF9395880F08F09927EE0F97957E
:100B6000879508950E94C6050C94AE060E94A706BC
:100B700058F00E94A00640F029F45F3F29F00C9441
:100B8000970651110C94E2060C949D060E94BF0634
:100B900068F39923B1F3552391F3951B550BBB27AC
:100BA000AA2762177307840738F09F5F5F4F220FF1
:100BB000331F441FAA1FA9F335D00E2E3AF0E0E8E8
:100BC00032D091505040E695001CCAF72BD0FE2F32
:100BD00029D0660F771F881FBB1F261737074807C6
:100BE000AB07B0E809F0BB0B802DBF01FF2793587E
:100BF0005F4F3AF09E3F510578F00C9497060C94A5
:100C0000E2065F3FE4F3983ED4F3869577956795C7
:100C1000B795F7959F5FC9F7880F911D96958795B2
:100C200097F90895E1E0660F771F881FBB1F6217D1
:100C300073078407BA0720F0621B730B840BBA0B8F
:100C4000EE1F88F7E09508950E942B066894B11175
:100C50000C94E20608950E94C70688F09F5798F00A
:100C6000B92F9927B751B0F0E1F0660F771F881FB1
:100C7000991F1AF0BA95C9F714C0B13091F00E94CB
:100C8000E106B1E008950C94E106672F782F8827DC
:100C9000B85F39F0B93FCCF3869577956795B395F2
:100CA000D9F73EF490958095709561957F4F8F4F61
:100CB0009F4F0895E89409C097FB3EF49095809566
:100CC000709561957F4F8F4F9F4F9923A9F0F92F12
:100CD00096E9BB279395F695879577956795B79590
:100CE000F111F8CFFAF4BB0F11F460FF1BC06F5F76
:100CF0007F4F8F4F9F4F16C0882311F096E911C088
:100D0000772321F09EE8872F762F05C0662371F0A8
:100D100096E8862F70E060E02AF09A95660F771FBC
:100D2000881FDAF7880F9695879597F9089597F9B0
:100D30009F6780E870E060E008959FEF80EC089581
:100D400000240A94161617061806090608950024AA
:100D50000A9412161306140605060895092E039424
:100D6000000C11F4882352F0BB0F40F4BF2B11F498
:100D700060FF04C06F5F7F4F8F4F9F4F089557FDF7
:100D80009058440F551F59F05F3F71F04795880FF9
:100D900097FB991F61F09F3F79F087950895121690
:100DA00013061406551FF2CF4695F1DF08C016163C
:100DB00017061806991FF1CF8695710561050894ED
:100DC0000895E894BB2766277727CB0197F9089504
:100DD0000E94FB060C94AE060E94A00638F00E940A
:100DE000A70620F0952311F00C9497060C949D060D
:100DF00011240C94E2060E94BF0670F3959FC1F384
:100E0000950F50E0551F629FF001729FBB27F00DB8
:100E1000B11D639FAA27F00DB11DAA1F649F66270D
:100E2000B00DA11D661F829F2227B00DA11D621F5C
:100E3000739FB00DA11D621F839FA00D611D221F16
:100E4000749F3327A00D611D231F849F600D211DFA
:100E5000822F762F6A2F11249F5750409AF0F1F07D
:100E600088234AF0EE0FFF1FBB1F661F771F881FE6
:100E700091505040A9F79E3F510580F00C94970681
:100E80000C94E2065F3FE4F3983ED4F386957795A1
:100E90006795B795F795E7959F5FC1F7FE2B880F8C
:100EA000911D9695879597F90895052E97FB1EF449
:100EB00000940E946C0757FD07D00E94740707FC3E
:100EC00003D04EF40C946C075095409530952195C5
:100ED0003F4F4F4F5F4F0895909580957095619566
:100EE0007F4F8F4F9F4F0895A1E21A2EAA1BBB1B65
:100EF000FD010DC0AA1FBB1FEE1FFF1FA217B307E6
:100F0000E407F50720F0A21BB30BE40BF50B661FFB
:100F1000771F881F991F1A9469F7609570958095BF
:100F200090959B01AC01BD01CF010895F894FFCFCE
:100F30005345543A474F414C3A43555252454E540B
:020F40000000AF
:00000001FF
